:020000040800F2
:1000000000000320BD2400087D0900087F090008C6
:100010008109000883090008850900080000000024
:100020000000000000000000000000008709000838
:1000300089090008000000008B0900088D090008EC
:100040000D2500080D2500080D2500080D250008C8
:100050000D2500080D2500080D2500080D250008B8
:100060000D2500080D2500080D2500080D250008A8
:100070000D2500080D2500080D2500080D25000898
:100080000D2500080D2500080D2500080D25000888
:100090000D2500080D2500080D2500080D25000878
:1000A0000D2500080D2500080D2500080D25000868
:1000B0000D2500080D2500080D2500080D25000858
:1000C0000D2500080D2500080D2500080D25000848
:1000D0000D2500080D2500080D2500080D25000838
:1000E0000D2500080D2500080D2500080D25000828
:1000F0000D2500080D2500080D2500080D25000818
:100100000D2500080D2500080D2500080D25000807
:100110000D2500080D2500080D2500080D250008F7
:100120000D2500080D2500080D2500080D250008E7
:100130000D2500080D2500080D2500080D250008D7
:100140000D2500080D2500080D2500080D250008C7
:100150000D2500080D2500080D250008950900084B
:100160000D2500080D2500080D2500080D250008A7
:100170000D2500080D2500080D25000800000000D1
:100180000D2500080D2500080D2500080D25000887
:100190000D2500080D2500080D2500080D25000877
:0C01A00000000000000000000D25000819
:1001B000034613F8012B002AFBD1181A01387047A7
:1001C00001F0FF01102A2BDB10F0070F08D010F808
:1001D000013B013A8B422DD010F0070F42B3F6D10C
:1001E000F0B441EA012141EA014122F007047FF025
:1001F00000070023F0E80256083C85EA010586EA7C
:10020000010685FA47F5A3FA87F586FA47F6A5FAB7
:1002100087F68EB9EED1F0BC01F0FF0102F00702C3
:1002200032B110F8013B013A83EA010313B1F8D16E
:100230000020704701387047002D06BF354603384F
:10024000073815F0010F07D1013015F4807F02BF88
:10025000013015F4C03F0130F0BC0138704700BFD9
:1002600053B94AB9002908BF00281CBF4FF0FF311D
:100270004FF0FF3000F00CB8ADF1080C6DE904CE82
:1002800002F06EFEDDF804E0DDE9022304B0704701
:10029000704700BF0348044B834202D0034B03B1B5
:1002A00018477047E0000020E00000200000000038
:1002B0000548064B1B1AD90F01EBA301491002D0C8
:1002C000034B03B118477047E0000020E000002016
:1002D0000000000010B5064C237843B9FFF7DAFFA1
:1002E000044B13B10448AFF300800123237010BD09
:1002F000E0000020000000001C32000808B5054B9B
:100300001BB105490548AFF30080BDE80840FFF781
:10031000CFBF00BF00000000E40000201C32000836
:1003200084B000220192104B196B41F080011963D7
:10033000196B01F08001019101990292196B41F052
:1003400008011963196B01F00801029102990392E7
:100350001A6B42F004021A631B6B03F0040303934D
:10036000039B04B0704700BF00380240F0B585B071
:10037000044603787BB102F01FF9A44B1B78002BD5
:1003800040F0B780A24B1B68052B33D8DFE803F0A1
:100390001E3751687E919D4A13709D4A13609D4D92
:1003A0000FCD20606160A260E36003CD20616161D8
:1003B0002B8823832046FFF7FBFE4FF0FF3382B2EA
:1003C0002146954801F0DDFD05B0F0BD934B186066
:1003D000934D0FCD20606160A260E3602B88238283
:1003E0002046FFF7E5FE4FF0FF3382B221468A48F0
:1003F00001F0C7FD864A136801331360E4E7874BB9
:100400005860884D0FCD20606160A260E36003CD2D
:10041000206161612A88AB782283A3762046FFF7AA
:10042000C7FE4FF0FF3382B221467B4801F0A9FDA1
:10043000E0E77A4B98607C4D0FCD20606160A26050
:10044000E3602A88AB782282A3742046FFF7B0FECF
:100450004FF0FF3382B221466F4801F092FDC9E7A9
:100460006E4BD860714D0FCD20606160A260E3607B
:1004700003CD206161612046FFF79AFE4FF0FF3304
:1004800082B22146644801F07CFDB3E7634B1861FA
:10049000674D0FCD20606160A260E3602046FFF7EA
:1004A00087FE4FF0FF3382B221465B4801F069FDC1
:1004B000A0E75A4A5061039013690293D3680193ED
:1004C00093680093536812685A49204602F052F824
:1004D0002046FFF76DFE4FF0FF3382B221464E48B3
:1004E00001F04FFD4A4B00221A60484B01221A705E
:1004F0006AE70138042800F2C580DFE800F003292C
:10050000516BA9004C4B1E6801364C4A1268B6FB71
:10051000F2F102FB11661E6006EB46033F4F484DA9
:1005200005EBC3050FCD0FC795E8030087E803006F
:10053000721C4449204602F01DF82046FFF738FEA1
:100540004FF0FF3382B22146334801F01AFD3BE7FA
:100550003A4B1B68384D2A681A44013AB2FBF3F152
:1005600003FB11222A6001323649204602F002F8CC
:100570002046FFF71DFE4FF0FF3382B2214626488A
:1005800001F0FFFC2B6803EB4303244D2C4C04EBE0
:10059000C3040FCC0FC594E8030085E8030013E7FC
:1005A000294A1368013313600A2B02DD13460A221D
:1005B0001A60254B1A682549204601F0DBFF2046CA
:1005C000FFF7F6FD4FF0FF3382B22146124801F0EB
:1005D000D8FCF9E61C4A1368013B1360002B10DDC0
:1005E000194B1A681949204601F0C4FF2046FFF74D
:1005F000DFFD4FF0FF3382B22146074801F0C1FC16
:10060000E2E6134601221A60EAE700BF000000207C
:100610009801002034320008D0010020B4010020ED
:10062000503200086432000880320008943200081A
:10063000AC320008BC320008CC01002008000020C9
:100640000C000020F43200080400002008330008E9
:10065000174A5369039313690293D368019393680C
:100660000093536812681349204601F083FF204627
:10067000FFF79EFD4FF0FF3382B221460E4801F096
:1006800080FCA1E60D4D0FCD20606160A260E360AB
:100690002A88AB782282A3742046FFF789FD4FF0A9
:1006A000FF3382B22146044801F06BFC8CE600BFA8
:1006B0009C0100201C330008D0010020803300087A
:1006C00072B6FEE700B58BB000230893099301933F
:1006D0000293039304930593069307931E481F4ABE
:1006E0000260F922426083606322C2600361836119
:1006F00000F082FB30BB00230893099308A9164839
:1007000000F0DEFC00BB60230193002302930393FF
:10071000059304220DEB02010F4800F0D1FBA8B9AC
:10072000082201A90C4800F0CBFB88B90C2201A9D2
:10073000094800F0C5FB68B9074800F07FF90BB025
:100740005DF804FBFFF7BCFFFFF7BAFFFFF7B8FF48
:10075000FFF7B6FFFFF7B4FF60020020000800407B
:1007600008B50A480A4B03604FF4E13343600023A5
:100770008360C36003610C2242618361C36101F045
:10078000D0FB00B908BDFFF79BFF00BFD0010020E0
:100790000014014000B583B00023009301930D487D
:1007A0000D4A026040F2E73242608360C2608361BA
:1007B00000F0F6FA50B9002300930193694605480A
:1007C00000F07EFC20B903B05DF804FBFFF778FF72
:1007D000FFF776FF180200200010004000B595B02A
:1007E0003022002108A801F0BDFE002303930493EA
:1007F0000593069307930193224A116C41F08051AF
:100800001164126C02F080520192019A02931E4A06
:10081000136823F4404343F480431360136803F4E4
:1008200040430293029B012308934FF480330993C2
:1008300002230E934FF480020F920F2210926C222B
:10084000119212930423139308A800F07FFC98B927
:1008500001F004F990B90F230393022104910023BE
:1008600005934FF480530693079303A800F0BEFE50
:1008700030B915B05DF804FBFFF722FFFFF720FF4A
:10088000FFF71EFF003802400070004008B501F07D
:10089000C5F9FFF7A3FFFFF743FDFFF713FFFFF7CE
:1008A0005FFFFFF777FF2A4800F0CAF9294C0421BF
:1008B000204600F083FB0821204600F07FFB0C213E
:1008C000204600F07BFB244B1C68244D04EB4404C1
:1008D000234E05EBC4040FCC0FC694E8030086E852
:1008E0000300204B1B68013B03EB43031E4E05EB4B
:1008F000C3040FCC0FC694E8030086E803000DE0A4
:100900001A4E33881A4C0025E5542046FFF72EFD79
:10091000358096222946204601F024FE4FF0FF3311
:1009200001221449144801F092FB0028F6D1114B22
:100930001B780A2BE4D00D2BE2D00C4A1288942AA3
:10094000ECD8501C0949088009498B54E6E700BFE0
:100950001802002060020020CC0100200C000020C2
:10096000B4010020080000209C010020FC000020B1
:1009700000010020FE000020D0010020FEE7FEE77D
:10098000FEE7FEE7FEE770477047704708B501F0E5
:100990005FF908BD08B5024801F04EFC08BD00BF74
:1009A000D001002082B0002100910B4B5A6C42F420
:1009B00080425A645A6C02F480420092009A01917B
:1009C0001A6C42F080521A641B6C03F0805301933E
:1009D000019B02B0704700BF003802400268094B1B
:1009E0009A4200D0704782B000230193064B1A6CE4
:1009F00042F004021A641B6C03F004030193019B90
:100A000002B0704700080040003802400268094BFD
:100A10009A4200D0704782B000230193064B1A6CB3
:100A200042F010021A641B6C03F010030193019B47
:100A300002B07047001000400038024000B587B097
:100A400000230193029303930493059302680E4BD2
:100A50009A4202D007B05DF804FB002300930B4BD1
:100A60001A6B42F008021A631B6B03F00803009331
:100A7000009B4FF46043019302230293059301A965
:100A8000034800F089FEE5E7000800400038024016
:100A9000000C024010B588B0002303930493059323
:100AA000069307930268184B9A4201D008B010BD14
:100AB0000024019403F592335A6C42F020025A64E8
:100AC0005A6C02F020020192019A02941A6B42F0D1
:100AD00004021A631B6B03F004030293029BC023FE
:100AE000039302230493032306930823079303A984
:100AF000064800F051FE22462146472001F040F80A
:100B0000472001F04DF8D1E70014014000080240F1
:100B100030B4036A026A22F0010202624268846908
:100B200024F0730C0C6844EA0C0423F0020C8B686C
:100B300043EA0C03114DA84203D005F58065A84295
:100B400005D123F00803CD682B4323F004030B4D9C
:100B5000A84203D005F58065A84207D122F440726F
:100B60004D6945EA020C8A6942EA0C0242608461DE
:100B70004A684263036230BC704700BF0000014016
:100B800030B4036A026A22F4807202624268C46965
:100B900024F0730C0C6844EA0C0523F400738C6891
:100BA00043EA0423114CA04203D004F58064A04220
:100BB00006D123F40063CC6843EA042323F4806362
:100BC0000A4CA04203D004F58064A04207D122F46D
:100BD00040524C6942EA04128C6942EA04124260B3
:100BE000C5614A68C263036230BC704700000140BF
:100BF00030B4036A026A22F4805202624468C26915
:100C000022F4E6420D6842EA052223F400538D687F
:100C100043EA0533094DA84203D005F58065A84293
:100C200004D124F480444D6944EA85144460C261CF
:100C30004A680264036230BC704700BF0000014094
:100C400090F83D30DBB2012B37D1022380F83D30E4
:100C50000268D36843F00103D3600368194A9342E2
:100C600020D0B3F1804F1DD0A2F57C42934219D021
:100C700002F58062934215D002F58062934211D052
:100C800002F5784293420DD002F57052934209D09A
:100C9000A2F59432934205D01A6842F001021A601C
:100CA000002070479A6802F00702062A07D01A68E7
:100CB00042F001021A6000207047012070470020B6
:100CC000704700BF000001400368344A904212D0D0
:100CD000B0F1804F0FD0A2F57C4290420BD002F5CC
:100CE0008062904207D002F58062904203D002F504
:100CF0007842904203D123F070034A681343274A95
:100D000090422AD0B0F1804F27D0A2F57C42904289
:100D100023D002F5806290421FD002F5806290429B
:100D20001BD002F57842904217D002F570529042E3
:100D300013D002F5806290420FD002F5806290429B
:100D40000BD0A2F59832904207D002F58062904213
:100D500003D002F58062904203D123F44073CA6845
:100D6000134323F080034A69134303608B68C36213
:100D70000B688362094B984203D003F58063984265
:100D800001D10B69036301234361036913F0010F70
:100D900003D0036923F001030361704700000140A1
:100DA00040B310B5044690F83D30F3B1022384F807
:100DB0003D30214651F8040BFFF786FF012384F8EC
:100DC000463084F83E3084F83F3084F8403084F870
:100DD000413084F8423084F8433084F8443084F859
:100DE000453084F83D30002010BD80F83C30FFF7DE
:100DF0000DFEDBE70120704740B310B5044690F8C4
:100E00003D30F3B1022384F83D30214651F8040B04
:100E1000FFF75AFF012384F8463084F83E3084F807
:100E20003F3084F8403084F8413084F8423084F810
:100E3000433084F8443084F8453084F83D30002055
:100E400010BD80F83C30FFF7C9FDDBE7012070479B
:100E500030B4036A026A22F01002026244688269B6
:100E600022F4E6420D6842EA052223F020038D6851
:100E700043EA0513114DA84203D005F58065A84249
:100E800006D123F08003CD6843EA051323F0400325
:100E90000A4DA84203D005F58065A84207D124F485
:100EA00040644D6944EA85048D6944EA85044460E0
:100EB00082614A688263036230BC7047000001406F
:100EC00038B590F83C30012B66D004460D4601231E
:100ED00080F83C300C2A5AD8DFE802F007595959FB
:100EE0001B5959593059595944000068FFF710FEF1
:100EF0002268936943F0080393612268936923F0A1
:100F0000040393612268936929690B43936100206C
:100F10003EE00068FFF79CFF2268936943F400639A
:100F200093612268936923F48063936122689369D3
:100F3000296943EA01239361002029E00068FFF753
:100F40001FFE2268D36943F00803D3612268D36986
:100F500023F00403D3612268D36929690B43D36169
:100F6000002015E00068FFF743FE2268D36943F4D0
:100F70000063D3612268D36923F48063D36122685C
:100F8000D369296943EA0123D361002000E00120ED
:100F9000002384F83C3038BD0220FCE701F01F013B
:100FA0004FF0010C0CFA01FC036A23EA0C03036204
:100FB000036A8A40134303627047000010B5044679
:100FC0000846002942D194F83E30DBB2013B18BFFD
:100FD0000123002B6ED1002851D1022384F83E302A
:100FE000012201462068FFF7D9FF2368334A934264
:100FF00003D002F58062934203D15A6C42F400425E
:101000005A6423682D4A934249D0B3F1804F46D0A9
:10101000A2F57C42934242D002F5806293423ED0D8
:1010200002F5806293423AD002F57842934236D07C
:1010300002F57052934232D0A2F5943293422ED0F0
:101040001A6842F001021A60002032E0042908D038
:1010500008290DD094F84130DBB2013B18BF0123C1
:10106000B7E794F83F30DBB2013B18BF0123B0E78C
:1010700094F84030DBB2013B18BF0123A9E70428F4
:1010800005D0082807D0022384F84130A8E70223BE
:1010900084F83F30A4E7022384F84030A0E79A6840
:1010A00002F00702062A07D01A6842F001021A600D
:1010B000002010BD0120FCE70020FAE700000140FD
:1010C00090F83C20012A3DD010B40346012280F85C
:1010D0003C20022280F83D2002685068946820F08D
:1010E000700C086840EA0C0050601A68164882428A
:1010F0001AD0B2F1804F17D0A0F57C40824213D0B5
:1011000000F5806082420FD000F5806082420BD0F3
:1011100000F57840824207D000F57050824203D03B
:10112000A0F59430824204D124F080044968214320
:101130009160012283F83D20002083F83C005DF897
:10114000044B70470220704700000140002800F067
:10115000E08170B582B00446036813F0010F3BD004
:101160009F4B9B6803F00C03042B2CD09C4B9B687B
:1011700003F00C03082B21D06368B3F5803F4FD0F8
:10118000B3F5A02F52D0964B1A6822F480321A6021
:101190001A6822F480221A606368002B50D000F095
:1011A00063FD05468E4B1B6813F4003F14D100F01D
:1011B0005BFD401B6428F5D90320B1E1884B5B68D7
:1011C00013F4800FD8D0864B1B6813F4003F03D074
:1011D0006368002B00F09F81236813F0020F54D046
:1011E0007F4B9B6813F00C0F3ED07D4B9B6803F048
:1011F0000C03082B33D0E368002B68D0794B012215
:101200001A6000F031FD0546754B1B6813F0020FA4
:1012100054D100F029FD401B0228F5D903207FE1BD
:101220006F4A136843F480331360B5E76C4B1A6858
:1012300042F480221A601A6842F480321A60ABE7E6
:1012400000F012FD0546664B1B6813F4003FC3D047
:1012500000F00AFD401B6428F5D9032060E1604BD3
:101260005B6813F4800FC6D15D4B1B6813F0020F4F
:1012700003D0E368012B40F05081594A136823F0F2
:10128000F803216943EAC1031360236813F0080FD0
:1012900042D063696BB3534B0122C3F8802E00F038
:1012A000E3FC05464E4B5B6F13F0020F34D100F0A8
:1012B000DBFC401B0228F5D9032031E1484A1368C2
:1012C00023F0F803216943EAC1031360DDE7454BCE
:1012D00000221A6000F0C8FC0546414B1B6813F061
:1012E000020FD2D000F0C0FC401B0228F5D9032029
:1012F00016E13C4B0022C3F8802E00F0B5FC0546F9
:10130000374B5B6F13F0020F06D000F0ADFC401BB3
:101310000228F5D9032003E1236813F0040F77D0E6
:101320002F4B1B6C13F0805F33D1002301932C4BA8
:101330001A6C42F080521A641B6C03F080530193C4
:10134000019B0125284B1B6813F4807F23D0A368E1
:10135000012B34D0052B38D0214B1A6F22F001021B
:101360001A671A6F22F004021A67A368002B3DD097
:1013700000F07AFC06461A4B1B6F13F0020F46D1A1
:1013800000F072FC801B41F288339842F3D90320AD
:10139000C6E00025D6E7144A136843F4807313604F
:1013A00000F062FC0646104B1B6813F4807FCED120
:1013B00000F05AFC801B0228F5D90320B0E0084A4F
:1013C000136F43F001031367CFE7054B1A6F42F029
:1013D00004021A671A6F42F001021A67C5E700BFDC
:1013E00000380240000047420070004000F03CFC22
:1013F0000646524B1B6F13F0020F08D000F034FC6E
:10140000801B41F288339842F3D9032088E0EDB97C
:10141000A369002B00F08380484A926802F00C0216
:10142000082A51D0022B17D0454B00221A6600F033
:101430001BFC0446414B1B6813F0007F42D000F0B8
:1014400013FC001B0228F5D9032069E03B4A136C0A
:1014500023F080531364DBE7394B00221A6600F057
:1014600003FC0546354B1B6813F0007F06D000F0E7
:10147000FBFB401B0228F5D9032051E0E369226AF7
:101480001343626A43EA8213A26A5208013A43EAAA
:101490000243E26A43EA0263284A5360284B01226E
:1014A0001A6600F0E1FB0446244B1B6813F0007F32
:1014B00006D100F0D9FB001B0228F5D903202FE04C
:1014C00000202DE000202BE0012B2BD01B4B5B6874
:1014D00003F48001E269914226D103F03F02216AC0
:1014E0008A4223D1616A47F6C0721A40B2EB811F6B
:1014F0001ED103F44031A26A5208013AB1EB024F07
:1015000018D103F07063E26AB3EB026F14D10020CC
:1015100006E001207047012002E0012000E00020E9
:1015200002B070BD0120FBE70120F9E70120F7E7D9
:101530000120F5E70120F3E70120F1E70038024040
:101540000000474208B5264B9B6803F00C03042BB0
:1015500041D0082B41D1224B5A6802F03F025B6810
:1015600013F4800F12D01E4B5968C1F388111D4827
:101570000023A1FB0001FEF773FE194B5B68C3F368
:10158000014301335B00B0FBF3F008BD144B586816
:10159000C0F388104FEA401CBCEB000C6EEB0E0E43
:1015A0004FEA8E1343EA9C634FEA8C11B1EB0C01B6
:1015B00063EB0E03DB0043EA5173C90011EB000C2F
:1015C00043F10003990200234FEA8C2041EA9C5129
:1015D000FEF746FED1E70348D7E70348D5E700BF4B
:1015E0000038024040787D010024F400002800F01B
:1015F0009B8070B50D4604464F4B1B6803F00F03EC
:101600008B4208D2CBB24C4A1370136803F00F031D
:101610008B4240F08B80236813F0020F17D013F039
:10162000040F04D0454A936843F4E0539360236861
:1016300013F0080F04D0414A936843F46043936069
:101640003E4A936823F0F003A1680B43936023683C
:1016500013F0010F32D06368012B21D09A1E012AAA
:1016600025D9364A126812F0020F61D033498A68D0
:1016700022F0030213438B6000F0F6FA06462F4B6C
:101680009B6803F00C036268B3EB820F16D000F086
:10169000EBFA801B41F288339842F0D9032042E0F4
:1016A000264A126812F4003FE0D101203BE0234AB1
:1016B000126812F0007FD9D1012034E01E4B1B6864
:1016C00003F00F03AB4207D9EAB21B4B1A701B6839
:1016D00003F00F03AB422DD1236813F0040F06D0A3
:1016E000164A936823F4E053E1680B439360236840
:1016F00013F0080F07D0114A936823F4604321695F
:1017000043EAC1039360FFF71DFF0C4B9B68C3F3D3
:1017100003130B4AD35CD8400A4B18600A4B186875
:1017200000F056FA002070BD012070470120FAE752
:101730000120F8E70120F6E7003C024000380240B3
:101740009C3300088C00002088000020014B1868A2
:10175000704700BF8C00002008B5FFF7F7FF044B6F
:101760009B68C3F38223034AD35CD84008BD00BF03
:10177000003802409433000808B5FFF7E7FF044B38
:101780009B68C3F34233034AD35CD84008BD00BF13
:10179000003802409433000800230F2B00F2F6803B
:1017A00070B582B066E085684FEA430E032404FA00
:1017B0000EF425EA0405CC6804FA0EF42C43846088
:1017C000446824EA02044A68C2F300129A402243A1
:1017D00042605DE0DC08083450F8242003F007057F
:1017E000AD004FF00F0E0EFA05FE22EA0E0E0A694A
:1017F000AA4042EA0E0240F824205DE0092200E0FF
:10180000002202FA0EF22A430234614D45F82420E8
:10181000604A94686FEA0C0224EA0C054E6816F4DC
:10182000801F01D04CEA04055A4CA560E46802EA26
:1018300004054E6816F4001F01D04CEA0405554C0F
:10184000E560646802EA04054E6816F4003F01D0C2
:101850004CEA04054F4C6560246822404D6815F43D
:10186000803F01D04CEA04024A4C226001330F2B26
:1018700000F28A8001229A400C6804EA020C32EAE3
:101880000404F3D14C6804F00304013C012C8AD910
:101890004A6802F00302032A09D0C4685D000322EB
:1018A000AA4024EA02048A68AA402243C2604A6825
:1018B00002F00302022A8DD004684FEA430E03228D
:1018C00002FA0EF224EA02044A6802F0030202FA63
:1018D0000EF2224302604A6812F4403FC6D0002252
:1018E00001922D4A546C44F480445464526C02F4C6
:1018F00080420192019A9C08A51C254A52F8255065
:1019000003F0030E4FEA8E0E0F2202FA0EF225EAC2
:101910000205224A90423FF473AF02F58062904282
:1019200022D002F58062904220D002F5806290427F
:101930001ED002F5806290421CD002F58062904277
:101940001AD002F58062904218D002F5806290426F
:1019500016D002F58062904214D002F58062904267
:101960003FF44CAF0A224CE701224AE7022248E743
:10197000032246E7042244E7052242E7062240E725
:1019800007223EE708223CE702B070BD704700BF67
:1019900000380140003C0140003802400000024095
:1019A00070B50446866D00F05FF994F83530DBB20F
:1019B000022B06D080236365002384F83430012095
:1019C00070BD05462268136823F016031360226871
:1019D000536923F080035361236CE3B122681368D9
:1019E00023F0080313602268136823F001031360D7
:1019F00023681B6813F0010F11D000F035F9431B69
:101A0000052BF5D920236365032084F835000023D6
:101A100084F83430D4E7A36C002BDFD1E3E7E26D28
:101A20003F239340B360012384F83530002084F8CD
:101A30003400C5E790F83530DBB2022B03D08023A9
:101A4000436501207047052380F83530026813682C
:101A500023F00103136000207047000010B582B02E
:101A600000230193194B1A6C42F080521A641B6CCC
:101A700003F080530193019B154B01221A6400F07F
:101A8000F3F80446134B5B6813F4803F08D100F071
:101A9000EBF8001BB0F57A7FF4D9032002B010BD3B
:101AA0000B4B01225A6400F0DFF80446094B5B68D7
:101AB00013F4003F07D100F0D7F8001BB0F57A7F90
:101AC000F4D90320EAE70020E8E700BF003802402D
:101AD00000000E4200700040002807DB00F01F02EB
:101AE000400901239340024A42F82030704700BF6A
:101AF00000E100E0002808DB0901C9B200F1604004
:101B000000F5614080F80013704700F00F000901F4
:101B1000C9B2014B1954704714ED00E000B500F054
:101B20000700C0F1070CBCF1040F28BF4FF0040CF4
:101B3000031D062B0FD9C31E4FF0FF3E0EFA0CF00B
:101B400021EA000199400EFA03FE22EA0E0241EA60
:101B500002005DF804FB0023EEE70000074AD368AB
:101B600023F4E0631B041B0C000200F4E060034359
:101B700043F0BF6343F40033D360704700ED00E0EF
:101B800010B50446054BD868C0F30220FFF7C6FF26
:101B900001462046FFF7AEFF10BD00BF00ED00E09C
:101BA00008B5FFF799FF08BD0138B0F1807F0BD26F
:101BB0004FF0E0235861054AF02182F823100020FD
:101BC000986107221A6170470120704700ED00E01C
:101BD00010B504460E4B1A784FF47A73B3FBF2F348
:101BE0000C4A1068B0FBF3F0FFF7DEFF68B90F2C6A
:101BF00001D901200AE0002221464FF0FF30FFF713
:101C0000BFFF054B1C60002000E0012010BD00BF9D
:101C1000840000208C0000208800002008B50B4BB9
:101C20001A6842F400721A601A6842F480621A60FC
:101C30001A6842F480721A600320FFF78FFF0F20AA
:101C4000FFF7C6FFFEF7AEFE002008BD003C0240D5
:101C5000034A1168034B1B780B441360704700BFA5
:101C6000A802002084000020014B1868704700BFC4
:101C7000A8020020034AD2F8883043F47003C2F867
:101C80008830704700ED00E010B503460C4A0D495E
:101C90000D48006840B10C4800680344521A934252
:101CA00006D8094A136010BD0748084C0460F2E7E3
:101CB00000F02EFC0C2303604FF0FF30F3E700BF71
:101CC0000000032000040000AC020020F803002004
:101CD000026802F10C0353E8003F23F490730C32C6
:101CE00042E800310029F3D1026802F1140353E8FD
:101CF000003F23F00103143242E800310029F3D100
:101D0000036B012B05D0202380F8423000230363AE
:101D10007047026802F10C0353E8003F23F0100300
:101D20000C3242E800310029F3D1ECE790F8413061
:101D3000DBB2212B01D0022070478368B3F5805FAE
:101D400017D0036A5A1C02621A7803685A60C38C5F
:101D50009BB2013B9BB2C3844BB90268D36823F0AA
:101D60008003D3600268D36843F04003D36000204F
:101D700070470369002BE4D1036A1B880268C3F330
:101D800008035360036A02330362E0E710B50446B8
:101D90000268136923F44053C1680B4313618368DD
:101DA00002691A4343691A43C3691A430168CB683D
:101DB00023F4164323F00C031343CB6002685369EA
:101DC00023F4407381690B4353610368314A9342A2
:101DD00006D002F58062934202D0FFF7BDFC01E01D
:101DE000FFF7CAFCE369B3F5004F29D000210318BF
:101DF00049411B1841F10001C90041EA5371DB0060
:101E0000181863684FEA83024FEA937341F10001A7
:101E1000FEF726FA204AA2FB00314909642303FB9E
:101E200011031B013233A2FB03235B0903F0F00211
:101E300002EB011203F00F03216813448B6010BD05
:101E40000023021843EB0301121841F10001C900FD
:101E500041EA5271D200101841F1000162689218F3
:101E60005B41FEF7FDF90C4AA2FB003149096423EE
:101E700003FB1103DB003233A2FB03235B095A008F
:101E800002F4F87202EB011203F007032168134415
:101E90008B60D4E7001001401F85EB512DE9F04322
:101EA00083B005460E4617469946DDF828802B6814
:101EB0001C6836EA04040CBF01240024BC4228D16B
:101EC000B8F1FF3FF3D0FFF7CFFEA0EB090040458C
:101ED00023D8B8F1000F22D02B68DA6812F0040F73
:101EE000E5D0802EE3D0402EE1D01A6812F0080F22
:101EF000DDD0002401941A6801925B680193019B74
:101F00002846FFF7E5FE08236B6485F84040012072
:101F100000E0002003B0BDE8F0830320FAE70320CF
:101F2000F8E760B310B5044690F8413013B32423AA
:101F300084F841302268D36823F40053D3602046EC
:101F4000FFF724FF2268136923F49043136122688A
:101F5000536923F02A0353612268D36843F4005382
:101F6000D36000206064202384F8413084F842303C
:101F7000606310BD80F84030FEF78CFDD7E701208C
:101F800070472DE9F04182B01E4690F84130DBB237
:101F9000202B56D104460D469046002955D00AB94B
:101FA00001204FE000234364212380F84130FFF7F4
:101FB0005BFE0746A4F82480A4F82680A368B3F546
:101FC000805F02D04FF0000814E023692BB34FF07C
:101FD00000080FE0202384F84130032032E038F875
:101FE000023B2268C3F308035360E28C92B2013AC9
:101FF00092B2E284E38C9BB293B100963B460022FE
:1020000080212046FFF74AFF0028E3D1002DE6D0CB
:1020100015F8012B23685A60E7E7A8460025E9E791
:1020200000963B46002240212046FFF737FF18B9B3
:10203000202384F8413005E0202384F84130032038
:1020400000E0022002B0BDE8F0810120FAE72DE9AE
:10205000F04182B01E4690F84230DBB2202B59D1BD
:1020600004460D469046002958D00AB9012052E096
:1020700000234364222280F842200363FFF7F4FD2B
:102080000746A4F82C80A4F82E80A368B3F5805FDF
:1020900002D04FF000081CE0236913B14FF0000894
:1020A00017E0A846002514E0202384F842300320DE
:1020B00031E023685B68C3F3080328F8023B03E0C0
:1020C00023685B682B700135E28D92B2013A92B2BF
:1020D000E285E38D9BB2C3B100963B4600222021EE
:1020E0002046FFF7DBFE0028DED1002DE1D0A368FB
:1020F000B3F5805FE4D013B92369002BE0D02368E7
:102100005B6803F07F032B70DDE7202384F8423007
:10211000002000E0022002B0BDE8F0810120FAE7D3
:10212000704708B50168CA6822F04002CA602022E0
:1021300080F84120FFF7F4FF002008BD704770478A
:1021400008B5806B0023C385C384FFF7F8FF08BD83
:10215000704790F84230DBB2222B69D18368B3F527
:10216000805F4FD0826AB3F5805F04D0002B56D1D8
:102170000369002B53D103685B681370836A0133D2
:102180008362C38D9BB2013B9BB2C385002B51D1AF
:1021900000B583B00268D36823F02003D3600268DF
:1021A000D36823F48073D3600268536923F001037A
:1021B0005361202380F8423000234363036B012BDB
:1021C00033D100230363026802F10C0353E8003F9C
:1021D00023F010030C3242E800310029F3D10368E8
:1021E0001A6812F0100F06D0002201921A680192AC
:1021F0005B680193019B818DFFF7AAFF002003B06C
:102200005DF804FB0269002AACD1826A03685B684E
:10221000C3F308031380836A02338362B1E7036860
:102220005B6803F07F031370A8E7FFF787FFE5E71C
:10223000022070470020704710B582B00446026843
:102240001368D068516913F00F0F09D113F0200FF4
:102250000CD010F0200F09D02046FFF77AFF16E0CF
:1022600011F0010115D110F4907F12D1216B0129D9
:1022700079D013F0800F03D010F0800F40F014815C
:1022800013F0400F03D010F0400F40F0118102B066
:1022900010BD13F0010F06D010F4807F03D0626CE4
:1022A00042F00102626413F0040F04D019B1626CB1
:1022B00042F00202626413F0020F04D019B1626CA2
:1022C00042F00402626413F0080F07D010F0200FF0
:1022D00000D119B1626C42F008026264626C002A9B
:1022E000D5D013F0200F02D010F0200F29D1236891
:1022F0005B6903F04003626C12F0080F00D163B316
:102300002046FFF7E5FC23685B6913F0400F20D0FF
:10231000226802F1140353E8003F23F04003143213
:1023200042E800310029F3D1E36B73B1624A1A65C8
:10233000E06BFFF77FFB0028A9D0E06B036D9847A7
:10234000A5E72046FFF705FFD1E72046FFF7F7FE98
:102350009DE72046FFF7F3FE99E72046FFF7EFFEE3
:102360000023636493E713F0100F82D010F0100F76
:102370003FF47FAF002301931368019353680193E7
:10238000019B536913F0400F52D0E26B13685B68F6
:102390009BB2002B3FF47BAFA18D99427FF677AFC4
:1023A000E385D369B3F5807F37D0226802F10C034F
:1023B00053E8003F23F480730C3242E800310029D7
:1023C000F3D1226802F1140353E8003F23F0010324
:1023D000143242E800310029F3D1226802F11403DB
:1023E00053E8003F23F04003143242E80031002953
:1023F000F3D1202384F8423000232363226802F1C2
:102400000C0353E8003F23F010030C3242E8003184
:102410000029F3D1E06BFFF7C3FA02236363A18DB8
:10242000E38D9BB2C91A89B22046FFF791FE2EE7D1
:10243000A18DE38D9BB2C91A89B2E38D9BB2002BAB
:102440003FF425AF00293FF422AF226802F10C03CC
:1024500053E8003F23F490730C3242E80030002828
:10246000F3D1226802F1140353E8003F23F0010383
:10247000143242E800300028F3D1202384F842309F
:1024800000232363226802F10C0353E8003F23F08A
:1024900010030C3242E800300028F3D102236363BA
:1024A0002046FFF755FEF2E62046FFF73FFCEEE63A
:1024B0002046FFF736FEEAE641210008DFF834D077
:1024C000FFF7D8FB0C480D490D4A002302E0D45811
:1024D000C4500433C4188C42F9D30A4A0A4C00236E
:1024E00001E013600432A242FBD300F017F8FEF7BC
:1024F000CDF970470000032000000020E00000201C
:10250000F0340008E0000020F8030020FEE700009F
:10251000014B1868704700BF9000002070B50D4D4A
:102520000D4C641BA4100026A64209D10B4D0C4C87
:1025300000F074FE641BA4100026A64205D170BDF5
:1025400055F8043B98470136EEE755F8043B9847A9
:102550000136F2E7E8340008E8340008E8340008FF
:10256000EC34000802440346934200D1704703F85C
:10257000011BF9E70EB410B59DB01FAB0290069099
:102580006FF000410A48079104910A4953F8042B5F
:102590000591002402A9006801931B9400F0F0F853
:1025A000029B1C701DB0BDE8104003B0704700BF17
:1025B000900000200802FFFF0A22002100F07AB8F4
:1025C000242B2DE9F0478646904601D8012B06D1F1
:1025D000FFF79EFF162303600020BDE8F087344814
:1025E0000D462A4615F8014B065D16F00806F8D18F
:1025F0002D2C10D12C780126951C33F0100215D10A
:10260000302C0DD12A7802F0DF02582A08D16C78DC
:10261000023510230AE02B2C04BF2C78951CECE724
:10262000002BF6D1302C14BF0A23082306F1004CEE
:102630000CF1FF3C0022BCFBF3F9104603FB19CA66
:10264000A4F13007092F0FD83C46A3421BDD571CCD
:1026500007D0814514D301D1A24511DB00FB034013
:10266000012215F8014BEBE7A4F14107192F01D81E
:10267000373CEAE7A4F16107192F04D8573CE4E797
:102680004FF0FF32EDE7531C08D12223CEF8003083
:102690006046B8F1000FA0D0691E06E006B14042C6
:1026A000B8F1000F99D0002AF6D1C8F8001094E7CD
:1026B000E033000813460A46014602480068FFF767
:1026C0007FBF00BF900000202DE9F0478E681F46B5
:1026D000BE420B6882460C4690462DD8B1F90C20BC
:1026E00012F4906F26D06569096905EB4505A3EBE7
:1026F000010905EBD5757B1C4B446D109D4238BF1D
:102700001D46530527D5294600F000FB064660B359
:1027100021694A4600F07AFBA38923F4906343F0D1
:102720008003A381266165614E44A5EB09052660FF
:10273000A5603E46BE4200D93E462068324641462C
:1027400000F01AF9A3689B1BA3602368334423603D
:102750000020BDE8F0872A4600F082FB06460028EC
:10276000E0D12169504600F0A9FB0C23CAF80030E3
:10277000A38943F04003A3814FF0FF30E9E7000055
:102780002DE9F04F98468B891B069DB007460D46F4
:10279000144610D50B6973B9402100F0B7FA2860D0
:1027A000286130B90C233B604FF0FF301DB0BDE80D
:1027B000F08F40236B610023099320238DF829308B
:1027C000CDF80C803023DFF89C818DF82A304FF053
:1027D000010923469A4613F8012B0AB1252AF9D19B
:1027E000BAEB040B0BD05B46224629463846FFF76E
:1027F0006BFF013000F0A780099A5A4409929AF8B9
:102800000030002B00F09F8000234FF0FF32CDE915
:1028100005230AF1010A049307938DF853301A93A4
:102820005446052214F8011B4E48FDF7C9FC049AD2
:10283000D8B9D00644BF20238DF85330110744BFC8
:102840002B238DF853309AF800302A2B15D0079A95
:10285000544600204FF00A0C214611F8013B303B52
:10286000092B4BD9B0B1079214E0A0EB080309FA89
:1028700003F313430493A246D2E7039B191D1B687D
:102880000391002BBBBF5B4242F002020793079308
:10289000B8BF049223782E2B0AD163782A2B32D129
:1028A000039B1A1D1B68039243EAE37302340593EA
:1028B000DFF8C0A0217803225046FDF781FC38B133
:1028C000049BA0EB0A00402282401343013404938E
:1028D00014F8011B24488DF828100622FDF770FC1F
:1028E000002836D0214B1BBB039B073323F0070383
:1028F00008330393099B334409936AE70CFB0232C4
:102900000C460120A8E700230134059319464FF037
:102910000A0C204610F8012B303A092A03D9002B63
:10292000C6D00591C4E70CFB012104460123F0E762
:1029300003AB00932A460E4B04A93846AFF3008040
:10294000421C0646D6D1AB895B063FF52DAF0998F0
:102950002CE703AB00932A46054B04A9384600F048
:1029600095F8EDE7AC330008B6330008000000002E
:10297000C9260008B2330008884210B501EB0204F2
:1029800002D98442234607D8431EA14208D011F839
:10299000012B03F8012FF8E7024401468A4200D1D7
:1029A00010BD13F8014D02F8014DF7E7704770476D
:1029B0002DE9F047164698468A680B69DDF82090A5
:1029C0009342B8BF1346336091F8432007460C4644
:1029D0000AB1013333602368990642BF336802337A
:1029E0003360256815F0060506D104F1190AE3687D
:1029F00032689B1AAB4226DC94F843302268003BD5
:102A000018BF012392062BD404F1430241463846F5
:102A1000C84701301ED02368226903F00603042B47
:102A200002BFE5683368ED1AA3680CBF25EAE575B7
:102A300000259342C4BF9B1AED1800261A34B542F4
:102A40001AD1002008E00123524641463846C847C3
:102A5000013003D14FF0FF30BDE8F0870135C6E704
:102A6000E1185A1C302081F84300224494F84510A4
:102A700082F843100233C7E7012322464146384615
:102A8000C8470130E6D00136D9E700002DE9FF47FD
:102A90000F7E0C9E782F914680460C469A4601F197
:102AA000430207D8622F0AD8002F00F0D180582F98
:102AB00000F0B88004F1420684F842703AE0A7F1D1
:102AC0006303152BF6D801A151F823F0252B00083C
:102AD000392B0008B52A0008B52A0008B52A0008D5
:102AE000B52A0008392B0008B52A0008B52A0008C5
:102AF000B52A0008B52A0008372C0008632B000807
:102B0000F12B0008B52A0008B52A0008592C000846
:102B1000B52A0008632B0008B52A0008B52A00086A
:102B2000F92B000833681A1D1B68326004F1420655
:102B300084F8423001239CE033682068191D31601D
:102B4000060601D51D6803E04506FBD5B3F9005024
:102B5000002D03DA2D236D4284F8433058480A23B0
:102B600011E021683368080653F8045B02D4490673
:102B700048BFADB26F2F5248336014BF0A230823F9
:102B8000002184F843106668A660002E05DB2168EA
:102B90002E4321F0040121604BD01646B5FBF3F122
:102BA00003FB1157C75D06F8017D2F46BB420D465A
:102BB000F4D9082B0BD12368DF0708D52369616896
:102BC0009942DEBF302306F8013C06F1FF36921B26
:102BD0002261CDF800A04B4603AA21464046FFF7EC
:102BE000E7FE01304AD14FF0FF3004B0BDE8F08776
:102BF000236843F0200323603248782784F8457027
:102C0000236831681F0651F8045B02D45F0648BF91
:102C1000ADB23160D90744BF43F0200323601DB13A
:102C20001023ADE72648E9E7236823F0200323605B
:102C3000F6E71646BDE7336825686169181D306000
:102C40002E061B6801D5196002E06806FBD51980C5
:102C5000002323611646BCE733681A1D32601E68E4
:102C6000626800213046FDF7ABFA08B1801B606056
:102C700063682361002384F84330AAE7236932465E
:102C800049464046D0470130ADD023689B0713D456
:102C9000E068039B9842B8BF1846A6E70123324676
:102CA00049464046D04701309DD00135E36803993D
:102CB0005B1AAB42F2DCEBE7002504F11906F5E7FD
:102CC000BD330008CE33000870B50F4E0C46316896
:102CD000054611B900F0B4F830602146284600F0EE
:102CE000AFF8431C03D14FF0FF34204670BDC41C25
:102CF00024F00304A042F8D0211A284600F0A0F8DE
:102D00000130F2D1EFE700BFEC0300202DE9F843DA
:102D1000CD1C25F0030508350C2D38BF0C25002DE2
:102D2000064601DBA94204D90C2333600020BDE82C
:102D3000F883DFF8D48000F077F8D8F800301C462C
:102D400044BB29463046FFF7BFFF431C044658D119
:102D5000D8F800402746002F43D1002C4BD02368E1
:102D60003946304604EB030900F06AF8814542D148
:102D700021686D1A29463046FFF7A6FF01303AD088
:102D800023682B442360D8F800305A6862BBC8F827
:102D900000700FE02268521B20D40B2A17D961194A
:102DA000A342256018BF5960636808BFC8F80010C7
:102DB00062514B60304600F03DF804F10B00231DDA
:102DC00020F00700C21A1CBF1B1AA350AFE76268AD
:102DD000A3420CBFC8F800205A60EBE723466468A2
:102DE000AEE73C467F68B6E71A465B68A342FBD174
:102DF00000235360DEE70C233360304600F01AF8FE
:102E000094E70560D6E700BFF00300200A44914232
:102E100000F1FF3300D1704710B511F8014B03F8F2
:102E2000014F9142F9D110BD0148FFF7BFBD00BF6E
:102E3000E80300200148FFF7BABD00BFE803002007
:102E400038B5064D0023044608462B60FEF71CFFEC
:102E5000431C02D12B6803B1236038BDF40300206A
:102E60002DE9F041074614460D4621B9BDE8F04171
:102E70001146FFF74BBF2AB900F020F82546284637
:102E8000BDE8F08100F064F88442064602D8B4EB55
:102E9000500FF4D821463846FFF738FF804608B96E
:102EA0004546ECE7B4422246294628BF3246FFF7A2
:102EB000ADFF2946384600F001F8F1E738B5054680
:102EC000002941D051F8043C0C1F002BB8BFE41876
:102ED000FFF7AAFF1D4A136833B9636014602846E0
:102EE000BDE83840FFF7A6BFA34208D920682118E3
:102EF0008B4201BF19685B6809182160EDE71A462B
:102F00005B680BB1A342FAD911685018A0420BD1EB
:102F100020680144501883421160E0D118685B6852
:102F2000536008441060DAE702D90C232B60D6E71F
:102F3000206821188B4204BF19685B68636004BF76
:102F4000091821605460CAE738BD00BFF0030020B3
:102F500051F8043C181F002BBCBF0B58C018704719
:102F60002DE9F047089D0E4604460F46002B4AD136
:102F700094468C45B2FA82F260D942B1C2F1200384
:102F8000974020FA03F30CFA02FC1F4394404FEAE7
:102F90001C4E1FFA8CF6B7FBFEF1230C0EFB1177CB
:102FA00043EA074301FB06F098420AD91CEB0303EE
:102FB00001F1FF3780F01581984240F21281023909
:102FC00063441B1AA4B2B3FBFEF00EFB103344EAB9
:102FD000034400FB06F6A6420AD91CEB040400F1E8
:102FE000FF3380F00081A64240F2FD806444023845
:102FF00040EA0140A41B00211DB1D4400023C5E9D3
:103000000043BDE8F0878B4205D90DB1C5E9000149
:1030100000210846F5E7B3FA83F1002946D1B3420F
:1030200002D3824200F2F580841A66EB030201208B
:103030001746002DE5D0C5E90047E2E7002A40F039
:103040009380A1EB0C034FEA1C471FFA8CFE012171
:10305000B3FBF7F607FB1630230C43EA00430EFBE5
:1030600006F0984208D91CEB030306F1FF3802D2A0
:10307000984200F2D08046461B1AA4B2B3FBF7F088
:1030800007FB103344EA03440EFB00FEA64508D9B3
:103090001CEB040400F1FF3302D2A64500F2B68017
:1030A0001846A4EB0E0440EA0640A5E7C1F120074C
:1030B0008B4022FA07FC4CEA030C06FA01FE20FAC8
:1030C00007F426FA07F344EA0E0400FA01F84FEA7F
:1030D0001C404FEA1449B3FBF0FE1FFA8CF600FBCC
:1030E0001E3349EA03430EFB06F9994502FA01F241
:1030F0000BD91CEB03030EF1FF3A80F08580994554
:1031000040F28280AEF1020E6344A3EB0909A4B23F
:10311000B9FBF0F300FB139944EA094403FB06F6FC
:10312000A64208D91CEB040403F1FF3068D2A64282
:1031300066D9023B644443EA0E40A41BA0FB02E6AE
:10314000B4427346B14652D34FD05DB1B8EB0302DF
:1031500064EB090404FA07F722FA01F31F43CC4099
:10316000C5E9007400214CE7C2F1200120FA01F307
:103170000CFA02FC26FA01F1964033434FEA1C4751
:103180001FFA8CFEB1FBF7F007FB1016190C41EA91
:10319000064100FB0EF68E4204FA02F408D91CEB3D
:1031A000010100F1FF382DD28E422BD90238614443
:1031B000891B9BB2B1FBF7F607FB161143EA0143EB
:1031C00006FB0EF1994208D91CEB030306F1FF3808
:1031D00014D2994212D9023E63445B1A46EA004176
:1031E00036E73946EDE6184602E7F045ADD2BEEBCC
:1031F000020366EB0C060138B146A6E74646ECE74B
:10320000034698E74046D3E7D6467EE76444023853
:1032100047E708460DE7023E63442DE7F8B500BFD7
:10322000F8BC08BC9E467047F8B500BFF8BC08BCA7
:043230009E467047FF
:10323400456E74657220677265656E207374617281
:10324400742070686173653A20000000456E7465EF
:103254007220677265656E206D6F643A200000000D
:10326400456E7465722079656C6C6F772073746138
:1032740072742070686173653A200000456E74654D
:10328400722079656C6C6F77206D6F643A20000052
:10329400456E746572207265642073746172742063
:1032A40070686173653A2000456E746572207265BA
:1032B40064206D6F643A2000437573746F6D206DE4
:1032C4006F64653A0A477265656E3A2025642C205E
:1032D40025640A59656C6C6F773A2025642C202587
:1032E400640A5265643A2025642C2025640A00008F
:1032F40043757272656E74206D6F64653A2025643F
:103304000A00000043757272656E742073706565FF
:10331400643A2025640A0000437573746F6D206D50
:103324006F64653A0A477265656E3A2070756C730E
:1033340065203D2025642C206D6F64203D2025648C
:103344000A59656C6C6F773A2070756C7365203D13
:103354002025642C206D6F64203D2025640A52656D
:10336400643A2070756C7365203D2025642C206DB3
:103374006F64203D2025640A00000000556E6B6ECA
:103384006F776E20706172616D657465720A0000FA
:10339400000000000102030400000000000000001F
:1033A4000102030406070809232D302B2000686C52
:1033B4004C00656667454647003031323334353654
:1033C400373839414243444546003031323334358D
:1033D4003637383961626364656600002020202036
:1033E40020202020202828282828202020202020B1
:1033F4002020202020202020202020208810101091
:1034040010101010101010101010101004040404E8
:10341400040404040404101010101010104141415D
:1034240041414101010101010101010101010101C8
:10343400010101010101011010101010104242425B
:103444004242420202020202020202020202020298
:1034540002020202020202101010102000000000FA
:103464000000000000000000000000000000000058
:103474000000000000000000000000000000000048
:103484000000000000000000000000000000000038
:103494000000000000000000000000000000000028
:1034A4000000000000000000000000000000000018
:1034B4000000000000000000000000000000000008
:1034C40000000000000000000000000000000000F8
:0C34D400000000000000000000000000EC
:0834E000D0CCFF7F01000000C9
:0434E800FD020008D9
:0434EC00D5020008FD
:1034F00001000000050000000500000000000000C1
:10350000C800000064000000C800000000000000C7
:10351000000000000000000090010000000000001A
:1035200000000000C8000000900100000000000042
:1035300058020000C800000058020000900100007E
:103540005802000000000000C80000000000000059
:10355000C800000064000000C80000000000000077
:10356000000000000000000000000000000000005B
:103570000000000001000000100000000024F40022
:103580009400002000000000B0020020180300207A
:103590008003002000000000000000000000000088
:1035A000000000000000000000000000000000001B
:1035B000000000000000000000000000000000000B
:1035C00000000000000000000000000000000000FB
:04000005080024BD0E
:00000001FF
