:020000040800F2
:1000000000000320611A000801040008030400082E
:1000100005040008070400080904000800000000A7
:100020000000000000000000000000000B040008B9
:100030000D040008000000000F040008110400086F
:10004000B11A0008B11A0008B11A0008B11A000864
:10005000B11A0008B11A0008B11A0008B11A000854
:10006000B11A0008B11A0008B11A0008B11A000844
:10007000B11A0008B11A0008B11A0008B11A000834
:10008000B11A0008B11A0008B11A0008B11A000824
:10009000B11A0008B11A0008B11A0008B11A000814
:1000A000B11A0008B11A0008B11A0008B11A000804
:1000B000B11A0008B11A0008B11A0008B11A0008F4
:1000C000B11A0008B11A0008B11A0008B11A0008E4
:1000D000B11A0008B11A0008B11A0008B11A0008D4
:1000E000B11A0008B11A0008B11A0008B11A0008C4
:1000F000B11A0008B11A0008B11A0008B11A0008B4
:10010000B11A0008B11A0008B11A0008B11A0008A3
:10011000B11A0008B11A0008B11A0008B11A000893
:10012000B11A0008B11A0008B11A0008B11A000883
:10013000B11A0008B11A0008B11A0008B11A000873
:10014000B11A0008B11A0008B11A0008B11A000863
:10015000B11A0008B11A0008B11A00081904000801
:10016000B11A0008B11A0008B11A0008B11A000843
:10017000B11A0008B11A0008B11A00080000000006
:10018000B11A0008B11A0008B11A0008B11A000823
:10019000B11A0008B11A0008B11A0008B11A000813
:0C01A0000000000000000000B11A000880
:1001AC0010F8012B11F8013B012A28BF9A42F7D015
:1001BC00D01A704753B94AB9002908BF00281CBF90
:1001CC004FF0FF314FF0FF3000F00CB8ADF1080CE0
:1001DC006DE904CE01F094FCDDF804E0DDE90223C6
:1001EC0004B07047704700BF0348044B834202D0F1
:1001FC00034B03B1184770477800002078000020AB
:10020C00000000000548064B1B1AD90F01EBA30197
:10021C00491002D0034B03B11847704778000020F7
:10022C00780000200000000010B5064C237843B97C
:10023C00FFF7DAFF044B13B10448AFF3008001233E
:10024C00237010BD7800002000000000C81D0008BD
:10025C0008B5054B1BB105490548AFF30080BDE857
:10026C000840FFF7CFBF00BF000000007C0000205B
:10027C00C81D000830B589B000240394049405947B
:10028C000694079400941D4B1A6B42F004021A63F7
:10029C001A6B02F004020092009A01941A6B42F05D
:1002AC0080021A631A6B02F080020192019A029486
:1002BC001A6B42F008021A631B6B03F008030293DB
:1002CC00029B0F4D22464FF40051284601F027F9AE
:1002DC004FF4004303930494059403A9094801F0D7
:1002EC0013F84FF4005303930123049305940694DD
:1002FC0003A9284601F008F809B030BD00380240C7
:10030C00000C02400008024072B6FEE708B50A482D
:10031C000A4B03604FF4E133436000238360C360F6
:10032C0003610C2242618361C36100F0FAF900B9E8
:10033C0008BDFFF7E9FF00BF940000200014014046
:10034C0000B595B03022002108A801F0D1FB0023A4
:10035C00039304930593069307930193194A116C25
:10036C0041F080511164126C02F080520192019A9A
:10037C00029315490A6822F4404242F480420A6012
:10038C000A6802F440420292029A02220892012266
:10039C000B9210220C920E9308A800F08FFC68B9F7
:1003AC000F2303930021049105910691079103A853
:1003BC0000F0D4FE20B915B05DF804FBFFF7A4FFE4
:1003CC00FFF7A2FF003802400070004008B501F0B2
:1003DC00ABF9FFF7B5FFFFF74DFFFFF797FF044CA5
:1003EC00204601F02DFA204601F0F8FAF7E700BF9D
:1003FC0094000020FEE7FEE7FEE7FEE7FEE770470D
:10040C007047704708B501F0A9F908BD08B5024856
:10041C0000F012FB08BD00BF9400002082B0002148
:10042C0000910B4B5A6C42F480425A645A6C02F4A1
:10043C0080420092009A01911A6C42F080521A6428
:10044C001B6C03F080530193019B02B0704700BFFB
:10045C000038024010B588B0002303930493059331
:10046C00069307930268184B9A4201D008B010BD4E
:10047C000024019403F592335A6C42F020025A6422
:10048C005A6C02F020020192019A02941A6B42F00B
:10049C0004021A631B6B03F004030293029BC02338
:1004AC00039302230493032306930823079303A9BE
:1004BC00064800F029FF22462146472001F0E6F8C5
:1004CC00472001F0F3F8D1E7001401400008024086
:1004DC00026802F10C0353E8003F23F490730C32D2
:1004EC0042E800310029F3D1026802F1140353E809
:1004FC00003F23F00103143242E800310029F3D10C
:10050C00036B012B05D0202380F8423000230363BA
:10051C007047026802F10C0353E8003F23F010030C
:10052C000C3242E800310029F3D1ECE790F841306D
:10053C00DBB2212B01D0022070478368B3F5805FBA
:10054C0017D0036A5A1C02621A7803685A60C38C6B
:10055C009BB2013B9BB2C3844BB90268D36823F0B6
:10056C008003D3600268D36843F04003D36000205B
:10057C0070470369002BE4D1036A1B880268C3F33C
:10058C0008035360036A02330362E0E710B50446C4
:10059C000268136923F44053C1680B4313618368E9
:1005AC0002691A4343691A43C3691A430168CB6849
:1005BC0023F4164323F00C031343CB6002685369F6
:1005CC0023F4407381690B4353610368314A9342AE
:1005DC0006D002F58062934202D000F075FE01E075
:1005EC0000F082FEE369B3F5004F29D00021031817
:1005FC0049411B1841F10001C90041EA5371DB006C
:10060C00181863684FEA83024FEA937341F10001B3
:10061C00FFF7D0FD204AA2FB00314909642303FBFC
:10062C0011031B013233A2FB03235B0903F0F0021D
:10063C0002EB011203F00F03216813448B6010BD11
:10064C000023021843EB0301121841F10001C90009
:10065C0041EA5271D200101841F1000162689218FF
:10066C005B41FFF7A7FD0C4AA2FB0031490964234B
:10067C0003FB1103DB003233A2FB03235B095A009B
:10068C0002F4F87202EB011203F007032168134421
:10069C008B60D4E7001001401F85EB512DE9F0432E
:1006AC0083B005460E4617469946DDF828802B6820
:1006BC001C6836EA04040CBF01240024BC4228D177
:1006CC00B8F1FF3FF3D001F055F8A0EB090040451D
:1006DC0023D8B8F1000F22D02B68DA6812F0040F7F
:1006EC00E5D0802EE3D0402EE1D01A6812F0080F2E
:1006FC00DDD0002401941A6801925B680193019B80
:10070C002846FFF7E5FE08236B6485F8404001207E
:10071C0000E0002003B0BDE8F0830320FAE70320DB
:10072C00F8E760B310B5044690F8413013B32423B6
:10073C0084F841302268D36823F40053D3602046F8
:10074C00FFF724FF2268136923F490431361226896
:10075C00536923F02A0353612268D36843F400538E
:10076C00D36000206064202384F8413084F8423048
:10077C00606310BD80F84030FFF76CFED7E70120B6
:10078C0070472DE9F04182B01E4690F84130DBB243
:10079C00202B56D104460D469046002955D00AB957
:1007AC0001204FE000234364212380F8413000F006
:1007BC00E1FF0746A4F82480A4F82680A368B3F5CB
:1007CC00805F02D04FF0000814E023692BB34FF088
:1007DC0000080FE0202384F84130032032E038F881
:1007EC00023B2268C3F308035360E28C92B2013AD5
:1007FC0092B2E284E38C9BB293B100963B4600220A
:10080C0080212046FFF74AFF0028E3D1002DE6D0D7
:10081C0015F8012B23685A60E7E7A8460025E9E79D
:10082C0000963B46002240212046FFF737FF18B9BF
:10083C00202384F8413005E0202384F84130032044
:10084C0000E0022002B0BDE8F0810120FAE72DE9BA
:10085C00F04182B01E4690F84230DBB2202B59D1C9
:10086C0004460D469046002958D00AB9012052E0A2
:10087C0000234364222280F84220036300F07AFFB5
:10088C000746A4F82C80A4F82E80A368B3F5805FEB
:10089C0002D04FF000081CE0236913B14FF00008A0
:1008AC0017E0A846002514E0202384F842300320EA
:1008BC0031E023685B68C3F3080328F8023B03E0CC
:1008CC0023685B682B700135E28D92B2013A92B2CB
:1008DC00E285E38D9BB2C3B100963B4600222021FA
:1008EC002046FFF7DBFE0028DED1002DE1D0A36807
:1008FC00B3F5805FE4D013B92369002BE0D02368F3
:10090C005B6803F07F032B70DDE7202384F8423013
:10091C00002000E0022002B0BDE8F0810120FAE7DF
:10092C00704708B50168CA6822F04002CA602022EC
:10093C0080F84120FFF7F4FF002008BD7047704796
:10094C0008B5806B0023C385C384FFF7F8FF08BD8F
:10095C00704790F84230DBB2222B69D18368B3F533
:10096C00805F4FD0826AB3F5805F04D0002B56D1E4
:10097C000369002B53D103685B681370836A0133DE
:10098C008362C38D9BB2013B9BB2C385002B51D1BB
:10099C0000B583B00268D36823F02003D3600268EB
:1009AC00D36823F48073D3600268536923F0010386
:1009BC005361202380F8423000234363036B012BE7
:1009CC0033D100230363026802F10C0353E8003FA8
:1009DC0023F010030C3242E800310029F3D10368F4
:1009EC001A6812F0100F06D0002201921A680192B8
:1009FC005B680193019B818DFFF7AAFF002003B078
:100A0C005DF804FB0269002AACD1826A03685B685A
:100A1C00C3F308031380836A02338362B1E703686C
:100A2C005B6803F07F031370A8E7FFF787FFE5E728
:100A3C00022070470020704710B582B0044602684F
:100A4C001368D068516913F00F0F09D113F0200F00
:100A5C000CD010F0200F09D02046FFF77AFF16E0DB
:100A6C0011F0010115D110F4907F12D1216B0129E5
:100A7C0079D013F0800F03D010F0800F40F0148168
:100A8C0013F0400F03D010F0400F40F0118102B072
:100A9C0010BD13F0010F06D010F4807F03D0626CF0
:100AAC0042F00102626413F0040F04D019B1626CBD
:100ABC0042F00202626413F0020F04D019B1626CAE
:100ACC0042F00402626413F0080F07D010F0200FFC
:100ADC0000D119B1626C42F008026264626C002AA7
:100AEC00D5D013F0200F02D010F0200F29D123689D
:100AFC005B6903F04003626C12F0080F00D163B322
:100B0C002046FFF7E5FC23685B6913F0400F20D00B
:100B1C00226802F1140353E8003F23F0400314321F
:100B2C0042E800310029F3D1E36B73B1624A1A65D4
:100B3C00E06B00F044FD0028A9D0E06B036D9847F2
:100B4C00A5E72046FFF705FFD1E72046FFF7F7FEA4
:100B5C009DE72046FFF7F3FE99E72046FFF7EFFEEF
:100B6C000023636493E713F0100F82D010F0100F82
:100B7C003FF47FAF002301931368019353680193F3
:100B8C00019B536913F0400F52D0E26B13685B6802
:100B9C009BB2002B3FF47BAFA18D99427FF677AFD0
:100BAC00E385D369B3F5807F37D0226802F10C035B
:100BBC0053E8003F23F480730C3242E800310029E3
:100BCC00F3D1226802F1140353E8003F23F0010330
:100BDC00143242E800310029F3D1226802F11403E7
:100BEC0053E8003F23F04003143242E8003100295F
:100BFC00F3D1202384F8423000232363226802F1CE
:100C0C000C0353E8003F23F010030C3242E8003190
:100C1C000029F3D1E06B00F088FC02236363A18D03
:100C2C00E38D9BB2C91A89B22046FFF791FE2EE7DD
:100C3C00A18DE38D9BB2C91A89B2E38D9BB2002BB7
:100C4C003FF425AF00293FF422AF226802F10C03D8
:100C5C0053E8003F23F490730C3242E80030002834
:100C6C00F3D1226802F1140353E8003F23F001038F
:100C7C00143242E800300028F3D1202384F84230AB
:100C8C0000232363226802F10C0353E8003F23F096
:100C9C0010030C3242E800300028F3D102236363C6
:100CAC002046FFF755FEF2E62046FFF73FFCEEE646
:100CBC002046FFF736FEEAE64D090008002800F052
:100CCC00E08170B582B00446036813F0010F3BD08D
:100CDC009F4B9B6803F00C03042B2CD09C4B9B6804
:100CEC0003F00C03082B21D06368B3F5803F4FD081
:100CFC00B3F5A02F52D0964B1A6822F480321A60AA
:100D0C001A6822F480221A606368002B50D000F01D
:100D1C0031FD05468E4B1B6813F4003F14D100F0D7
:100D2C0029FD401B6428F5D90320B1E1884B5B6891
:100D3C0013F4800FD8D0864B1B6813F4003F03D0FC
:100D4C006368002B00F09F81236813F0020F54D0CE
:100D5C007F4B9B6813F00C0F3ED07D4B9B6803F0D0
:100D6C000C03082B33D0E368002B68D0794B01229D
:100D7C001A6000F0FFFC0546754B1B6813F0020F60
:100D8C0054D100F0F7FC401B0228F5D903207FE179
:100D9C006F4A136843F480331360B5E76C4B1A68E1
:100DAC0042F480221A601A6842F480321A60ABE76F
:100DBC0000F0E0FC0546664B1B6813F4003FC3D003
:100DCC0000F0D8FC401B6428F5D9032060E1604B8F
:100DDC005B6813F4800FC6D15D4B1B6813F0020FD8
:100DEC0003D0E368012B40F05081594A136823F07B
:100DFC00F803216943EAC1031360236813F0080F59
:100E0C0042D063696BB3534B0122C3F8802E00F0C0
:100E1C00B1FC05464E4B5B6F13F0020F34D100F062
:100E2C00A9FC401B0228F5D9032031E1484A13687C
:100E3C0023F0F803216943EAC1031360DDE7454B56
:100E4C0000221A6000F096FC0546414B1B6813F01B
:100E5C00020FD2D000F08EFC401B0228F5D90320E3
:100E6C0016E13C4B0022C3F8802E00F083FC0546B3
:100E7C00374B5B6F13F0020F06D000F07BFC401B6E
:100E8C000228F5D9032003E1236813F0040F77D06F
:100E9C002F4B1B6C13F0805F33D1002301932C4B31
:100EAC001A6C42F080521A641B6C03F0805301934D
:100EBC00019B0125284B1B6813F4807F23D0A3686A
:100ECC00012B34D0052B38D0214B1A6F22F00102A4
:100EDC001A671A6F22F004021A67A368002B3DD020
:100EEC0000F048FC06461A4B1B6F13F0020F46D15C
:100EFC0000F040FC801B41F288339842F3D9032068
:100F0C00C6E00025D6E7144A136843F480731360D7
:100F1C0000F030FC0646104B1B6813F4807FCED1DA
:100F2C0000F028FC801B0228F5D90320B0E0084A09
:100F3C00136F43F001031367CFE7054B1A6F42F0B1
:100F4C0004021A671A6F42F001021A67C5E700BF64
:100F5C0000380240000047420070004000F00AFCDC
:100F6C000646524B1B6F13F0020F08D000F002FC28
:100F7C00801B41F288339842F3D9032088E0EDB905
:100F8C00A369002B00F08380484A926802F00C029F
:100F9C00082A51D0022B17D0454B00221A6600F0BC
:100FAC00E9FB0446414B1B6813F0007F42D000F074
:100FBC00E1FB001B0228F5D9032069E03B4A136CC6
:100FCC0023F080531364DBE7394B00221A6600F0E0
:100FDC00D1FB0546354B1B6813F0007F06D000F0A3
:100FEC00C9FB401B0228F5D9032051E0E369226AB2
:100FFC001343626A43EA8213A26A5208013A43EA33
:10100C000243E26A43EA0263284A5360284B0122F6
:10101C001A6600F0AFFB0446244B1B6813F0007FEC
:10102C0006D100F0A7FB001B0228F5D903202FE006
:10103C0000202DE000202BE0012B2BD01B4B5B68FC
:10104C0003F48001E269914226D103F03F02216A48
:10105C008A4223D1616A47F6C0721A40B2EB811FF3
:10106C001ED103F44031A26A5208013AB1EB024F8F
:10107C0018D103F07063E26AB3EB026F14D1002055
:10108C0006E001207047012002E0012000E0002072
:10109C0002B070BD0120FBE70120F9E70120F7E762
:1010AC000120F5E70120F3E70120F1E700380240C9
:1010BC000000474208B5264B9B6803F00C03042B39
:1010CC0041D0082B41D1224B5A6802F03F025B6899
:1010DC0013F4800F12D01E4B5968C1F388111D48B0
:1010EC000023A1FB0001FFF765F8194B5B68C3F304
:1010FC00014301335B00B0FBF3F008BD144B58689F
:10110C00C0F388104FEA401CBCEB000C6EEB0E0ECB
:10111C004FEA8E1343EA9C634FEA8C11B1EB0C013E
:10112C0063EB0E03DB0043EA5173C90011EB000CB7
:10113C0043F10003990200234FEA8C2041EA9C51B1
:10114C00FFF738F8D1E70348D7E70348D5E700BFE6
:10115C000038024040787D010024F400002800F0A3
:10116C009B8070B50D4604464F4B1B6803F00F0374
:10117C008B4208D2CBB24C4A1370136803F00F03A6
:10118C008B4240F08B80236813F0020F17D013F0C2
:10119C00040F04D0454A936843F4E05393602368EA
:1011AC0013F0080F04D0414A936843F460439360F2
:1011BC003E4A936823F0F003A1680B4393602368C5
:1011CC0013F0010F32D06368012B21D09A1E012A33
:1011DC0025D9364A126812F0020F61D033498A6859
:1011EC0022F0030213438B6000F0C4FA06462F4B27
:1011FC009B6803F00C036268B3EB820F16D000F00F
:10120C00B9FA801B41F288339842F0D9032042E0AE
:10121C00264A126812F4003FE0D101203BE0234A39
:10122C00126812F0007FD9D1012034E01E4B1B68EC
:10123C0003F00F03AB4207D9EAB21B4B1A701B68C1
:10124C0003F00F03AB422DD1236813F0040F06D02B
:10125C00164A936823F4E053E1680B4393602368C8
:10126C0013F0080F07D0114A936823F460432169E7
:10127C0043EAC1039360FFF71DFF0C4B9B68C3F35C
:10128C0003130B4AD35CD8400A4B18600A4B1868FE
:10129C0000F024FA002070BD012070470120FAE70D
:1012AC000120F8E70120F6E7003C0240003802403C
:1012BC00E81D00080800002004000020014B1868FD
:1012CC00704700BF0800002008B5FFF7F7FF044B7C
:1012DC009B68C3F38223034AD35CD84008BD00BF8C
:1012EC0000380240E01D000808B5FFF7E7FF044B8B
:1012FC009B68C3F34233034AD35CD84008BD00BF9C
:10130C0000380240E01D000800230F2B00F2F6808D
:10131C0070B582B066E085684FEA430E032404FA88
:10132C000EF425EA0405CC6804FA0EF42C43846010
:10133C00446824EA02044A68C2F300129A40224329
:10134C0042605DE0DC08083450F8242003F0070507
:10135C00AD004FF00F0E0EFA05FE22EA0E0E0A69D2
:10136C00AA4042EA0E0240F824205DE0092200E087
:10137C00002202FA0EF22A430234614D45F8242071
:10138C00604A94686FEA0C0224EA0C054E6816F465
:10139C00801F01D04CEA04055A4CA560E46802EAAF
:1013AC0004054E6816F4001F01D04CEA0405554C98
:1013BC00E560646802EA04054E6816F4003F01D04B
:1013CC004CEA04054F4C6560246822404D6815F4C6
:1013DC00803F01D04CEA04024A4C226001330F2BAF
:1013EC0000F28A8001229A400C6804EA020C32EA6C
:1013FC000404F3D14C6804F00304013C012C8AD999
:10140C004A6802F00302032A09D0C4685D00032273
:10141C00AA4024EA02048A68AA402243C2604A68AD
:10142C0002F00302022A8DD004684FEA430E032215
:10143C0002FA0EF224EA02044A6802F0030202FAEB
:10144C000EF2224302604A6812F4403FC6D00022DA
:10145C0001922D4A546C44F480445464526C02F44E
:10146C0080420192019A9C08A51C254A52F82550ED
:10147C0003F0030E4FEA8E0E0F2202FA0EF225EA4B
:10148C000205224A90423FF473AF02F5806290420B
:10149C0022D002F58062904220D002F58062904208
:1014AC001ED002F5806290421CD002F58062904200
:1014BC001AD002F58062904218D002F580629042F8
:1014CC0016D002F58062904214D002F580629042F0
:1014DC003FF44CAF0A224CE701224AE7022248E7CC
:1014EC00032246E7042244E7052242E7062240E7AE
:1014FC0007223EE708223CE702B070BD704700BFF0
:10150C0000380140003C014000380240000002401D
:10151C000369194201D001207047002070470AB1BD
:10152C008161704709048161704770B50446866D0E
:10153C0000F020F994F83530DBB2022B06D0802372
:10154C006365002384F83430012070BD05462268A1
:10155C00136823F0160313602268536923F0800389
:10156C005361236CE3B12268136823F00803136002
:10157C002268136823F00103136023681B6813F0BF
:10158C00010F11D000F0F6F8431B052BF5D92023E1
:10159C006365032084F83500002384F83430D4E7E5
:1015AC00A36C002BDFD1E3E7E26D3F239340B360E4
:1015BC00012384F83530002084F83400C5E790F816
:1015CC003530DBB2022B03D08023436501207047FA
:1015DC00052380F835300268136823F0010313608B
:1015EC0000207047002807DB00F01F024009012390
:1015FC009340024A42F82030704700BF00E100E0FF
:10160C00002808DB0901C9B200F1604000F5614017
:10161C0080F80013704700F00F000901C9B2014BAC
:10162C001954704714ED00E000B500F00700C0F14C
:10163C00070CBCF1040F28BF4FF0040C031D062B44
:10164C000FD9C31E4FF0FF3E0EFA0CF021EA000139
:10165C0099400EFA03FE22EA0E0241EA02005DF8FE
:10166C0004FB0023EEE70000074AD36823F4E06391
:10167C001B041B0C000200F4E060034343F0BF6347
:10168C0043F40033D360704700ED00E010B504461E
:10169C00054BD868C0F30220FFF7C6FF0146204671
:1016AC00FFF7AEFF10BD00BF00ED00E008B5FFF77F
:1016BC0099FF08BD0138B0F1807F0BD24FF0E023C9
:1016CC005861054AF02182F8231000209861072206
:1016DC001A6170470120704700ED00E010B5044618
:1016EC000E4B1A784FF47A73B3FBF2F30C4A106872
:1016FC00B0FBF3F0FFF7DEFF68B90F2C01D9012026
:10170C000AE0002221464FF0FF30FFF7BFFF054BE8
:10171C001C60002000E0012010BD00BF0000002074
:10172C00080000200400002008B50B4B1A6842F496
:10173C0000721A601A6842F480621A601A6842F4E5
:10174C0080721A600320FFF78FFF0F20FFF7C6FF90
:10175C00FEF764FE002008BD003C0240034A1168FD
:10176C00034B1B780B441360704700BFDC00002058
:10177C0000000020014B1868704700BFDC000020FF
:10178C00034AD2F8883043F47003C2F888307047AB
:10179C0000ED00E010B54FF400411248FFF7B8FE21
:1017AC000446FFF7E7FF14B90F4B1B683BB10E4B18
:1017BC001B68C01A012C05D00024204610BD0A4B12
:1017CC001860FAE7142808D93BB1074B00221A60BD
:1017DC00B0F5167FF1D90224EFE70024024B1C6010
:1017EC00EBE700BF00080240F000002070B582B0AB
:1017FC0006460D460024192C15D80F4B53F824100F
:10180C002846FEF7CDFC08B10134F4E761348DF8BD
:10181C0007404FF0FF3301220DF107013046FEF770
:10182C00B0FF02B070BD4FF0FF33012203493046C8
:10183C00FEF7A7FFF5E700BF0C000020941E000880
:10184C0038B50546FFF7A6FF0446FFF793FF03469E
:10185C00012C0CD0022C1AD0194A12689B1A40F297
:10186C00DC52934202D9174B1B7803BB38BD154A87
:10187C001278062AF0D8511CC9B2124801701248CD
:10188C002E248454002242540D4A1360E4E70D4A7E
:10189C001278062AE0D8511CC9B20A4801700A48CD
:1018AC002D24845400224254054A1360D4E706497F
:1018BC002846FFF79BFF034B00221A70D6E700BFA8
:1018CC00E0000020E4000020E800002008B5012220
:1018DC004FF400510148FFF722FE08BD000C0240F6
:1018EC0008B500224FF400510148FFF718FE08BD5F
:1018FC00000C024010B5FFF73DFF0446304B1B783F
:10190C005BB1304B1B68C31AB3F5167F18D92E4B3D
:10191C0001221A702A4B00221A702B4B1B7883B9A8
:10192C002A4B1B78613B2A4A52F82320294B1B680F
:10193C00D35C294A12785AB32E2B11D02D2B20D0E0
:10194C0010BD00F071F8214B1870224B00221A6068
:10195C0018B11D4B00221A70E2E7FFF7C1FFEFE749
:10196C00184A1268A21AC72AE8D9FFF7B9FF1A4B0E
:10197C0000221A70174A136801331360114B1C6054
:10198C00DEE7104B1B68E31AB3F57A7FD8D3ECE78C
:10199C0063B10C4B1B68E31AC72BD1D9FFF796FF29
:1019AC000D4B01221A70074B1C60C9E7FFF798FF1B
:1019BC00034B01221A70074B00221A60C0E700BFCC
:1019CC00F5000020F8000020740000200001002029
:1019DC000C000020FC000020F600002008B50A23B3
:1019EC0001220649FEF733FF10B1FFF783FF08BD54
:1019FC00024B187800F004F8F7E700BFF400002061
:101A0C00064B1A68531C03F00703054909689942F1
:101A1C0003D004498854014A136070470401002024
:101A2C00080100200C010020074B1B68074A1268B4
:101A3C00934207D0064AD05C013303F00703024AF5
:101A4C00136070470020704708010020040100203B
:101A5C000C010020DFF834D0FFF792FE0C480D4942
:101A6C000D4A002302E0D458C4500433C4188C42ED
:101A7C00F9D30A4A0A4C002301E013600432A24253
:101A8C00FBD300F011F8FEF7A1FC70470000032017
:101A9C000000002078000020A81E0008780000201C
:101AAC0014010020FEE7000070B50D4D0D4C641BB9
:101ABC00A4100026A64209D10B4D0C4C00F07EF967
:101ACC00641BA4100026A64205D170BD55F8043B3A
:101ADC0098470136EEE755F8043B98470136F2E794
:101AEC00A01E0008A01E0008A01E0008A41E0008CE
:101AFC0002440346934200D1704703F8011BF9E7F7
:101B0C002DE9F047089D0E4604460F46002B4AD19E
:101B1C0094468C45B2FA82F260D942B1C2F12003EC
:101B2C00974020FA03F30CFA02FC1F4394404FEA4F
:101B3C001C4E1FFA8CF6B7FBFEF1230C0EFB117733
:101B4C0043EA074301FB06F098420AD91CEB030356
:101B5C0001F1FF3780F01581984240F21281023971
:101B6C0063441B1AA4B2B3FBFEF00EFB103344EA21
:101B7C00034400FB06F6A6420AD91CEB040400F150
:101B8C00FF3380F00081A64240F2FD8064440238AD
:101B9C0040EA0140A41B00211DB1D4400023C5E93B
:101BAC000043BDE8F0878B4205D90DB1C5E90001B2
:101BBC0000210846F5E7B3FA83F1002946D1B34278
:101BCC0002D3824200F2F580841A66EB03020120F4
:101BDC001746002DE5D0C5E90047E2E7002A40F0A2
:101BEC009380A1EB0C034FEA1C471FFA8CFE0121DA
:101BFC00B3FBF7F607FB1630230C43EA00430EFB4E
:101C0C0006F0984208D91CEB030306F1FF3802D208
:101C1C00984200F2D08046461B1AA4B2B3FBF7F0F0
:101C2C0007FB103344EA03440EFB00FEA64508D91B
:101C3C001CEB040400F1FF3302D2A64500F2B6807F
:101C4C001846A4EB0E0440EA0640A5E7C1F12007B4
:101C5C008B4022FA07FC4CEA030C06FA01FE20FA30
:101C6C0007F426FA07F344EA0E0400FA01F84FEAE7
:101C7C001C404FEA1449B3FBF0FE1FFA8CF600FB34
:101C8C001E3349EA03430EFB06F9994502FA01F2A9
:101C9C000BD91CEB03030EF1FF3A80F085809945BC
:101CAC0040F28280AEF1020E6344A3EB0909A4B2A8
:101CBC00B9FBF0F300FB139944EA094403FB06F665
:101CCC00A64208D91CEB040403F1FF3068D2A642EB
:101CDC0066D9023B644443EA0E40A41BA0FB02E617
:101CEC00B4427346B14652D34FD05DB1B8EB030248
:101CFC0064EB090404FA07F722FA01F31F43CC4002
:101D0C00C5E9007400214CE7C2F1200120FA01F36F
:101D1C000CFA02FC26FA01F1964033434FEA1C47B9
:101D2C001FFA8CFEB1FBF7F007FB1016190C41EAF9
:101D3C00064100FB0EF68E4204FA02F408D91CEBA5
:101D4C00010100F1FF382DD28E422BD902386144AB
:101D5C00891B9BB2B1FBF7F607FB161143EA014353
:101D6C0006FB0EF1994208D91CEB030306F1FF3870
:101D7C0014D2994212D9023E63445B1A46EA0041DE
:101D8C0036E73946EDE6184602E7F045ADD2BEEB34
:101D9C00020366EB0C060138B146A6E74646ECE7B3
:101DAC00034698E74046D3E7D6467EE764440238BC
:101DBC0047E708460DE7023E63442DE7F8B500BF40
:101DCC00F8BC08BC9E467047F8B500BFF8BC08BC10
:041DDC009E46704768
:101DE00000000000010203040000000000000000E9
:101DF00001020304060708092E2D00000000000060
:101E00002D2E2E2E000000002D2E2D2E0000000065
:101E10002D2E2E002E0000002E2E2D2E0000000054
:101E20002D2D2E002E2E2E2E000000002E2E000016
:101E30002E2D2D2D000000002D2E2D002E2D2E2EAE
:101E4000000000002D2D00002D2E00002D2D2D0056
:101E50002E2D2D2E000000002D2D2E2D0000000017
:101E60002E2D2E002E2E2E002D0000002E2E2D00A9
:101E70002E2E2E2D000000002E2D2D002D2E2E2D6D
:101E8000000000002D2E2D2D000000002D2D2E2EE7
:081E9000000000003F0000000B
:081E980014E3FF7F01000000CC
:041EA0005D020008D7
:041EA40035020008FB
:101EA80001000000100000000024F400F81D0008E4
:101EB800001E0008081E0008101E0008141E000856
:101EC800181E0008201E0008241E00082C1E0008EA
:101ED800301E0008381E00083C1E0008441E00087A
:101EE800481E00084C1E0008501E0008581E000816
:101EF800601E0008641E0008681E00086C1E0008AA
:101F0800701E0008781E00087C1E0008841E000849
:081F18008C1E0008010000000E
:0400000508001A6174
:00000001FF
